:020000040800F2
:1000000000000320BD050008CD200008CF20000817
:10001000D1200008D3200008D520000800000000EF
:10002000000000000000000000000000517D0008FA
:10003000D720000800000000E17D00080D760008D0
:100040000D0600080D0600080D0600080D06000844
:100050000D0600080D0600080D0600080D06000834
:100060000D0600080D0600080D0600080D06000824
:100070000D0600080D0600080D060008FD2000080A
:100080000D0600080D0600080D0600080D06000804
:100090000D0600080D0600080D0600080D060008F4
:1000A0000D0600080D0600080D0600080D060008E4
:1000B0000D0600080D0600080D0600080D060008D4
:1000C0000D0600080D0600080D0600080D060008C4
:1000D0000D0600080D0600080D0600080D060008B4
:1000E0000D0600080D0600080D0600080D060008A4
:1000F0000D0600080D0600080D0600080D06000894
:100100000D0600080D0600080D0600080D06000883
:100110000D0600080D060008D92000080D0600088D
:100120000D0600080D0600080D0600080D06000863
:100130000D0600080D0600080D0600080D06000853
:100140000D0600080D0600080D0600080D06000843
:100150000D0600080D0600080D0600080D06000833
:100160000D0600080D0600080D0600080D06000823
:100170000D0600080D0600080D060008000000002E
:100180000D0600080D0600080D0600080D06000803
:100190000D0600080D0600080D0600080D060008F3
:0C01A000E52000080D060008F120000812
:1001B00010B5054C237833B9044B13B10448AFF3A1
:1001C00000800123237010BD6C010020000000009E
:1001D00060EC010808B5034B1BB103490348AFF3BA
:1001E000008008BD000000007001002060EC0108E4
:1001F00001F0FF01102A2BDB10F0070F08D010F8D8
:10020000013B013A8B422DD010F0070F42B3F6D1DB
:10021000F0B441EA012141EA014122F007047FF0F4
:1002200000070023F0E80256083C85EA010586EA4B
:10023000010685FA47F5A3FA87F586FA47F6A5FA87
:1002400087F68EB9EED1F0BC01F0FF0102F0070293
:1002500032B110F8013B013A83EA010313B1F8D13E
:100260000020704701387047002D06BF354603381F
:10027000073815F0010F07D1013015F4807F02BF58
:10028000013015F4C03F0130F0BC0138704700BFA9
:1002900053B94AB9002908BF00281CBF4FF0FF31ED
:1002A0004FF0FF3000F088B9ADF1080C6DE904CED5
:1002B00000F006F8DDF804E0DDE9022304B0704741
:1002C0002DE9F047089D8E4604468846002B4AD10A
:1002D0008A42174662D9B2FA82F64EB1C6F12003BD
:1002E00001FA06F820FA03F3B74043EA0808B440DD
:1002F0004FEA174E1FFA87FCB8FBFEF1230C0EFBEA
:10030000118843EA084301FB0CF29A4209D9FB1811
:1003100001F1FF3080F0EA809A4240F2E780023932
:100320003B449A1AA3B2B2FBFEF00EFB102243EA42
:10033000024300FB0CFC9C4509D9FB1800F1FF327D
:1003400080F0D6809C4540F2D3803B44023840EA9E
:100350000140A3EB0C0300211DB1F3400022C5E9CD
:100360000032BDE8F0878B4205D90DB1C5E9000127
:1003700000210846F5E7B3FA83F1002946D1734519
:1003800002D3824200F20581841A6EEB030201203F
:100390009046002DE5D0C5E90048E2E7002A00F0CC
:1003A0009080B2FA82F6002E40F0A4808A1A030CE4
:1003B0004FEA174E80B2BCB20121B2FBFEFC0EFB2D
:1003C0001C2243EA024304FB0CF29A4207D9FB18B1
:1003D0000CF1FF3802D29A4200F2E080C4469B1A28
:1003E000B3FBFEF20EFB123340EA034302FB04F4BC
:1003F0009C4207D9FB1802F1FF3002D29C4200F266
:10040000CA8002461B1B42EA0C40A5E7C1F1200648
:100410008B4022FA06F71F430EFA01F420FA06F386
:100420002EFA06FE4FEA1749234300FA01F81FFA95
:1004300087FCBEFBF9F01C0C09FB10EE44EA0E44ED
:1004400000FB0CFEA64502FA01F209D93C1900F1A5
:10045000FF3A80F09C80A64540F2998002383C44E7
:10046000A4EB0E041FFA83FEB4FBF9F309FB13445B
:100470004EEA044403FB0CFCA44508D93C1903F1E3
:10048000FF3E80F08280A4457FD9023B3C4443EA92
:100490000040A4EB0C04A0FB02EC64457346E1466B
:1004A00062D35FD05DB1B8EB030264EB090404FAD8
:1004B00006F622FA01F31E43CC40C5E90064002190
:1004C0004FE7B1FBF2FC010C41EA0E4180B240EA79
:1004D00001423B4638463C46B846BE462026B1FB64
:1004E000F7F1A2EB080241EA0C4166E7014618E782
:1004F00010462CE7C6F120022EFA02F3B740B140B5
:1005000020FA02F24FEA174E0A43B3FBFEF8BCB2E0
:100510000EFB1833110C41EA034108FB04F9B0400B
:1005200089454FEA104380B23ED9791808F1FF3C63
:1005300001D289451FD8A1EB0901B1FBFEF909FBE6
:1005400004F80EFB191192B242EA0142424529D247
:10055000BA1809F1FF31C4D24245C2D2A9F1020151
:100560003A44BEE7F0459DD2BEEB02036CEB070CAC
:100570000138E14696E7A7EB09094944A8F1020CC6
:10058000B1FBFEF909FB04F8DBE773467FE7504651
:1005900066E70846FDE63B44023A33E7ACF1020C5D
:1005A0003B441CE749469CE7A1EB0901C446B1FB6B
:1005B000FEF909FB04F8C4E7704700BFDFF834D048
:1005C000002103E00C4B5B58435004310B480C4BAB
:1005D00042189A42F6D30B4A02E0002342F8043B49
:1005E000094B9A42F9D304F09DF91DF0CBFD01F0BF
:1005F00025F870470000032044670708000000202A
:100600006C0100206C0100201C4F0120FEE700F06F
:10061000BBBC00F029BD704710B5042104461DF095
:10062000D3FA204610BD000038B50C4B0C4C188096
:100630000C4B822019806368984740F6110398425A
:100640000AD1094D23682C60822098472B688220AC
:10065000DB689847002038BD0120FCE792010020AC
:100660005400002090010020940100204FF4A0715C
:10067000F020FFF7D9BF0000F7B5354D2B680446D1
:100680001B6982209847208000284BD02B680DF1F1
:1006900006025B6901A982209847BDF8063040F642
:1006A0007462934240D9ADF80620BDF80630D21AE4
:1006B00092B20A2A3ED90B23B2FBF3F2254B1B88D8
:1006C0009A4201D9013B9AB2BDF80430224840F663
:1006D000B8318B4230D8C3F571630E3301689BB2D9
:1006E0000F25B3FBF5F31D4D2D88AB4284BF05F1FB
:1006F000FF35ABB28B421D468EB226D99B1B99B2F9
:10070000174E3768BBB2BA428CBFD31A9B1A9BB242
:1007100019440529C8BF05600368C8BF32606380FB
:100720003368A38003B0F0BDB32B9CBFB423ADF8F6
:100730000630BAE70022C7E7C3F56D6308339BB202
:100740000E2B0168CCD800252B46C91A89B2D7E7F1
:1007500094010020900100208C01002092010020D3
:100760008801002037B568460D461446FFF784FF20
:10077000BDF8000030B1BDF802302B60BDF8043088
:100780002360012003B030BD032821D8DFE800F04A
:10079000020B12190F4B1A68B2FA82F252090421A5
:1007A0000D4804F0DFBC0B4B5A68B2FA82F25209D2
:1007B0000821F5E7074B9A68B2FA82F25209102134
:1007C000EEE7044BDA68B2FA82F252092021E7E739
:1007D000704700BF9801002000100240032821D874
:1007E000DFE800F0020B12190F4B1A68003A18BF2D
:1007F000012204210D4804F0B5BC0B4B5A68003AA5
:1008000018BF01220821F5E7074B9A68003A18BF84
:1008100001221021EEE7044BDA68003A18BF0122EA
:100820002021E7E7704700BF980100200010024038
:1008300003280DD8DFE800F00206080A0421054865
:1008400004F095BC0821FAE71021F8E72021F6E72B
:10085000704700BF0010024008B5032811D8DFE838
:1008600000F0020A0C0E0421074804F075FC431E38
:100870005842584108BD0821F6E71021F4E720212D
:10088000F2E70020F3E700BF0010024070B5084D0A
:1008900000240126E0B2FFF7DFFF18B12B68012B1F
:1008A00018BF2E600134052C05F10405F2D170BD8E
:1008B00098010020012380F8781080F87930704783
:1008C00000207047034B4164003918BF01211970A3
:1008D000704700BFEB42012000207047836B0BB1D3
:1008E0000846184770474FF6FF7070474068036826
:1008F0009B691847704770477047000070B5044601
:1009000000F052FC2368D3F88850044BD4E90F124E
:100910002046AC46BDE87040604700BF000000D0F4
:1009200008B503680446D3F880309847236820460A
:100930009B6F984700F0ECF8236820461B6F9847A0
:10094000292000F0F9FD00F0E3F8236820461B6F32
:100950009847F8E710B504460AF06CF8236820467B
:10096000D3F8AC30BDE81040184700F00FBC00F0E1
:1009700013BC00F03FBC00F0E5BB00F03FBC00F052
:1009800047BC00F0E9BB09F0C1BA10B57C210446B0
:100990001DF01AF9204610BD10B590F8341090F8EB
:1009A00078400C4B8C421A7809D03AB90A4A0B4964
:1009B0001488088810800C8001221A7010BD002A4B
:1009C000FCD0054A05491488088810800C80002254
:1009D000F3E700BFE4420120E0420120E2420120AF
:1009E00070B50D46194635B9094B0A4A0A4840F216
:1009F000D2211DF017F9C0E90F52084B003A18BF79
:100A000001221A700368BDE87040D3F88C30184793
:100A100020F7030858F70308A6F70308EA42012065
:100A200008B5094B1B888B4203D8084B1B8893429F
:100A300005D9074B074A08489E211DF0F3F8074BDC
:100A40001980074B1A8008BDE0420120E2420120D4
:100A5000EBF703084EF80308A6F70308E642012067
:100A6000E8420120034690F87A0018B158680368FC
:100A70001B68184770470000012108B5002208468E
:100A800006F066FE0A4B186028B90A4B0A4A28216C
:100A90000A481DF0C7F800220421012006F000FFDB
:100AA000074B186018B9074B034A2C21F0E708BD23
:100AB000AC01002091F80308DAF8030809F90308EB
:100AC000A80100205EF90308024B4FF0FF311868BF
:100AD00006F088BEAC010020014B186806F0AEBEDF
:100AE000AC010020024B0021186806F07BBE00BF5D
:100AF000AC010020FFF7F0BF034804490068002361
:100B00001A4606F008BF00BFA8010020040000201C
:100B100013B5084C00231A4601A9206806F02CFFE3
:100B200020684FF0FF33002201A906F025FF02B034
:100B300010BD00BFA801002003685B6C18470120AE
:100B4000704703689B6A184782B0002301930D4BDE
:100B50001A6B42F400021A631A6B02F4000201924B
:100B6000019A1A6942F400021A611A6922F4000219
:100B70001A61054B054A1A61054B4FF080629A6075
:100B800002B0704700380240182F0020210E0008E4
:100B900000E100E040F2EF3070470000054B0360D9
:100BA000054B4FF08062C3F88820BFF34F8FBFF32F
:100BB0006F8F70479004040800E100E010B5044610
:100BC0004FF45A61FFF7EAFF20461CF0FDFF204674
:100BD00010BD000008B50A2809D8DFE800F00610AB
:100BE0000E080808081010101000022008BD054B60
:100BF000054A064887211DF015F80020F6E7012078
:100C0000F4E700BFA0F90308BBF9030806FA0308DC
:100C100038B50C46887FFFF7DDFFA58AE28A164BC0
:100C20002169586342EA05425A64628BD963521BB8
:100C30001A642568082D0ED19A611A615862207FC6
:100C40000E4A42EA0062DA61E2681A620C4A5961AD
:100C5000D9601A6038BD0022D8611A61E1680A0AB9
:100C6000480902F4784200F4FC600243C1F3C40175
:100C70000A439A63034AECE700B00240090001000E
:100C8000010202000102030008B50B280BD8DFE8BF
:100C900000F00612100A0A0A0A08080808080220CA
:100CA00008BD0520FCE7054B054A064866211CF0F7
:100CB000B9FF0020F4E70120F2E700BFA0F9030824
:100CC00059FA030806FA03082DE9F04191F81D804E
:100CD0000C464046FFF7D8FFA77F05463846FFF78A
:100CE000D3FF06463846FFF775FFA18A628B444B57
:100CF000521A1A649A61228B521A1A61E28A586354
:100D000042EA01425A6421696268D963DA60206864
:100D1000802828D0227F0FD8202867D0402865D08F
:100D200004281AD0364B45EA026545F40035B8452B
:100D3000DD6161D0334A44E0B0F5807F04D0B0F586
:100D4000007FEFD1304800E0304840EA0262DA61CB
:100D5000E2681A625E62596132E045EA026242F478
:100D60000032DA61F6E7A068021DDA62227F45EA06
:100D7000026545F40035DD615E625961017841B17B
:100D8000012921D0224B234A234840F211111CF0A3
:100D900049FFDA69418822F47F42013922F01002CA
:100DA00042EA0122DA610121154BDA6942F02002A0
:100DB000DA61DA699206FCD410229A600029B9D06F
:100DC000164A1A60BDE8F081B2F1FF01DA69408885
:100DD00022F47F4200F1FF3022F0100242EA0022AA
:100DE00042F0100218BF0121DA61DDE745EA026234
:100DF000034B42F40032B4E740F20122E1E700BFC6
:100E000000B0024001020100090002000A000200D5
:100E1000A3FA0308BDFA030806FA03080102020058
:100E2000024B1B68586803685B691847EC42012055
:100E300070B5044625460A4B0C30002660602672C9
:100E4000667245F8203B6022294609F031FF04F51F
:100E50005A63EE6024359D42FBD1204670BD00BF31
:100E600090040408012070474020704700EB811077
:100E70000830704700EB8110083070470120704740
:100E800040F68820704740F6882303FB01000830B5
:100E9000704740F6882303FB0100083070470120AB
:100EA00070471020704700EB01100830704700EBCE
:100EB000011008307047084601F0A4BB10B5034B81
:100EC0000360044608F079FD204610BD480504087B
:100ED00010B50446FFF7F2FF204648211CF074FECF
:100EE000204610BD10B5034B0360044608F065FDB5
:100EF000204610BD1405040810B50446FFF7F2FFA4
:100F000020464FF429611CF05FFE204610BD000012
:100F100010B5034B0360044608F04FFD204610BD9A
:100F2000E004040810B50446FFF7F2FF204618213C
:100F30001CF04AFE204610BD10B5084B0360044665
:100F400000F6BC20FFF7BAFF04F12C00FFF7CAFF40
:100F500004F11400FFF7DCFF204610BD7C050408F7
:100F600008B50248FFF7E8FF08BD00BF5C1000208D
:100F700010B50446FFF7E0FF204640F664411CF040
:100F800023FE204610BD00002DE9F34101F030F9A9
:100F9000054601F031F90024014623462846224641
:100FA00000940FF0A5F9254B254A264D1A602046DE
:100FB00002F05CFA24480FF003F92B68BFF35B8F53
:100FC000DB0735D428461CF001FE88B31F4C204BAC
:100FD000236004F6083604F1140004F12C0804F62A
:100FE000BC276060C4F80880E760266108F0E6FC72
:100FF000184B6361404608F0E1FC174BE36238464A
:1010000008F0DCFC154BC4F8BC3A04F6043002F0DE
:1010100035FE224604F60431304602F09DFA304691
:1010200001F0F0FA0E481CF01BFE28461CF0DAFD19
:101030000C4802B0BDE8F041FFF760BC4843012016
:101040002C02002058100020080000205C10002016
:101050007C050408E0040408140504084805040895
:10106000610F0008B00100200148FFF759BC00BF24
:10107000B001002070B5224E224C234D234B23603B
:101080003046FFF7D5FE284613F0FEFB204B2148E3
:10109000DC6000224FF48071C3E912121E491A86E7
:1010A000C3E91A121D4999671D4983F858200B603E
:1010B000F02101801B485A6601801B4883F870208C
:1010C0004FF4A071C3E90422C3E90622C3E9082250
:1010D000C3E90A22C3E90E22C3E91022C3E914229C
:1010E000C3E917225A67C3E9016501800F480180EF
:1010F0000F490A70012283F834200E4A1A6070BD2D
:10110000B4020020541000203002002010F7030821
:10111000B0010020E04201200100000100000101B7
:10112000EC420120E6420120E2420120E842012097
:10113000E4420120B80304080148FFF72FBD00BFB7
:10114000B4020020034B902283F85A2383F85823DB
:10115000704700BF00E100E0094A0A49D3680A4825
:10116000C3F30A03013B9BB20B801169C1F30A016F
:10117000013901801364536B43F0010353637047DB
:1011800000680140C21C0020C01C0020014BD3F8A5
:10119000AC00704700680140024B0122C3F8AC105C
:1011A0005A6270470068014070B5044608F003FFBA
:1011B00023685D6E0BF0F0FF01462046A8472368C8
:1011C000054AD3F888502046AC460023BDE870405D
:1011D000A2F51631604700BF00B004D008F0D2BEBF
:1011E00090F84B3013B1024B01221A7008F0D6BEB2
:1011F000C41C002008F090BE08F0F1BF034B4FF074
:1012000080629A604FF080729A60704700E100E05F
:10121000084B4FF08062C3F88820BFF34F8FBFF3B5
:101220006F8F4FF08072C3F88820BFF34F8FBFF3EA
:101230006F8F704700E100E010B5144C236823B3B2
:10124000134B144A1B6C11888B4213D1124B198813
:1012500005F036F8226892F86A30013382F86A3075
:10126000FFF74AFC206809F0E5FBBDE810400020CC
:10127000FFF78ABA05F024F8206803681B6A9847CC
:10128000BDE810400020FFF7A9BA10BDEC420120D4
:1012900000680140C21C0020C01C002007B5064B9E
:1012A000ADF806001B68054801220DF1060105F0A6
:1012B0007BFD03B05DF804FB0C000020C42D002072
:1012C000F7B5304E304C306806F086FB054678B9ED
:1012D0000421204603F040FF002814BF4E23522370
:1012E0008DF80430306864232A4601A906F013FB08
:1012F000264F386806F070FB08210546204603F0AB
:101300002BFF024658B9002D14BF4E234C238DF8F5
:101310000530386864230DF1050106F0FCFA1C4F16
:10132000386806F059FB054680B91021204603F0C5
:1013300013FF002814BF4E2355238DF8063038685C
:1013400064232A460DF1060106F0E5FA114F3868CC
:1013500006F042FB054680B92021204603F0FCFE42
:10136000002814BF4E2344238DF8073038686423C7
:101370002A460DF1070106F0CEFA642006F0DCF9EA
:10138000A1E700BFDC2C002000100240D82C002078
:10139000D42C0020D02C002070B5A0B01022002149
:1013A0000AA81CF046FE1422002103A81CF041FEEE
:1013B0000021302214A81CF03CFE0025204B019592
:1013C0001A6C42F080521A641B6C03F08053019334
:1013D000019B1C4B02951A6842F440421A601B683C
:1013E00003F440430293029B01264FF4803302240E
:1013F000CDE908634FF480030822CDE90E434FF492
:10140000A873CDE9102308A807231393129404F0BE
:1014100075FF0F23CDE903344FF4A0514FF48053EF
:10142000CDE9061303A80521059505F043F9C0236E
:1014300014A8CDE91534149605F004FA20B070BD57
:101440000038024000700040704770477FB5094B7C
:101450008DF817201B6802930DF1170201230092EB
:1014600001930A460146044804F016F907B05DF8F6
:1014700004FB00BF10000020C42E00207FB5002315
:101480008DF81730084B1B6802930A4601230DF1B3
:101490001701009101930146044804F08DF99DF86D
:1014A000170007B05DF804FB10000020C42E0020D8
:1014B0001FB5084C24680092CDE901340A46012387
:1014C0000146054804F078F9003818BF012004B03F
:1014D00010BD00BF10000020C42E002003F05CBA35
:1014E00010B5064C00222046042103F03BFE2046A6
:1014F0000122BDE81040042103F034BE0008024080
:1015000038B50B4D044601220A484FF4005103F050
:1015100029FE00220421284603F024FE2046FFF77E
:10152000BDFE28460122BDE83840042103F01ABE62
:1015300000080240000C024038B50B4D0446002262
:101540000A484FF4005103F00DFE00220421284602
:1015500003F008FE2046FFF7A1FE28460122BDE861
:101560003840042103F0FEBD00080240000C024098
:10157000F7B5144E144F05460C46304600220421A0
:1015800003F0F0FD00224FF40051384603F0EAFD6D
:101590002846FFF783FE0D4B0D481B68224601A924
:1015A00005F09FFD384601224FF40051019C03F0E5
:1015B000D9FD30460122042103F0D4FD204603B0BA
:1015C000F0BD00BF00080240000C02400C000020EB
:1015D000C42D002003F0E0B92DE9F843144E154F57
:1015E0003568DFF854900C462B19BB42804605EB5A
:1015F000090116D97F1BA5F502353A46A5F24E25FD
:101600001CF0E7FD25444E232A4609EB030108EBB5
:10161000070033601CF0DDFD34682C443460BDE805
:10162000F88322461CF0D5FD33681C44F6E700BF62
:10163000CC1C00204E0A020078EC01082DE98048FD
:101640009BB00024C64DC74F03F07AF9FFF7A4FE04
:10165000142200210DA81CF0ECFC00942B6BC24856
:1016600043F010032B632B6B03F010030093009BDC
:1016700001942B6B43F020032B632B6B03F02003AF
:101680000193019B02942B6B43F080032B632B6B24
:1016900003F080030293029B03942B6B43F004033B
:1016A0002B632B6B03F004030393039B04942B6BBA
:1016B00043F001032B632B6B03F001030493049BA2
:1016C00005942B6B43F002032B632B6B03F0020397
:1016D0000593059B06942B6B43F040032B632B6B08
:1016E00003F040030693069B07942B6B43F008031B
:1016F0002B632B6B03F00803079322463C21079BC7
:1017000003F030FD99482246042103F02BFD2246C8
:1017100097484FF44051012603F024FD3C23CDE9C6
:101720000D3691480F9403230DA910934FF0020A30
:1017300003F02EFC4FF004098C480F940DA9CDE95D
:101740000D96CDF840A003F023FC4FF4405288489A
:101750000DA9CDE90D26CDE90F4A03F019FC854806
:101760000F940DA9CDE90D6403F012FC7E480DA97C
:101770004FF00808CDE90D94CDE90F6403F008FCA3
:1017800079480DA94FF0100BCDE90D84CDE90F6418
:1017900003F0FEFB74480DA9CDE90DB4CDE90F644B
:1017A00003F0F6FB0DA920226F48CDE90D24CDE909
:1017B0000F6403F0EDFB7048704A026003F052F9C9
:1017C0006F4B704A3C62C7E9003238464FF48042A2
:1017D000C7E90424C7E90244C7E9064403F0B4FE9C
:1017E0005946384604F0F0F82146384604F00BF923
:1017F00065486649664F84624FF48272C0E9001200
:101800004FF400731822C0E906320A22C262C0E90E
:101810000244C0E90444C0E9084405F069FA5D4A9D
:10182000C7F810B0C7E9002640204FF4C072C7E9DE
:1018300005024FF400520323BA624FF4006B0722F3
:101840000DA93846CDE9113AC7E90249CDE90E297B
:10185000C7E908B4FC611092CDF834A0CDF84CA0D3
:1018600005F042F94FF6FF7209A93846CDE909683B
:10187000CDE90B64089405F057F9304603F08CF875
:101880004FF6FF7209A93846CDE909A8CDE90B64E6
:1018900005F04AF903234FF6FF7209A93846CDE94E
:1018A0000938CDE90B9405F03FF94FF40C7208921A
:1018B000089A0C9209A94FF6FF723846CDE90998AB
:1018C0000B9605F031F940F26A51384605F04AF9B5
:1018D000342221460DEB02001CF0ABFB2E4F2F4AA9
:1018E0003C61C7E9002409220323C7E905261D221C
:1018F00040F20D1CC7E9072340F24312C7E909C2B1
:1019000040F2171E40F247123846C7E90BE2C7E91A
:101910000244BC8687F8364004F0DAFBFF20F02151
:101920004FF4A0724FF00509CDE912044FF4806026
:10193000CDE91409CDE90E14CDE9102ACDE91641FF
:1019400018920DA9224638460D94154FADF8644003
:101950008DF8664004F087FC124A3A60126823E072
:1019600000380240C42E002000100240000802404F
:10197000000C024000000240582F002000300240BE
:10198000005C0040A0860100C42D002000500140F2
:10199000902D0020400100A01C2E00200068014076
:1019A000C81C00201C00002090473A683A4FD268BB
:1019B00090473A4A3846C7E90024C7E902A4C7E974
:1019C0000A4AC7E90C4403F0E9F93146384603F006
:1019D0009BFAFEF71CFE0D942B6B43F400132B6354
:1019E0002B6B2F4D03F40013494622460D930F2015
:1019F0000D9BDFF8F09002F0F5FF0F2003F024F8C4
:101A00004FF40073C5E9009328464BF68033C5E9CF
:101A10000534C5E90244C5E907442C6104F012F815
:101A2000204B21484E224FF480511A60FFF7D4FD1D
:101A30001D495A46284604F0A5F805F0F5FD1B4A55
:101A40003146404605F02CFF194B1A4A18603146C2
:101A5000404605F025FF184B184A186031464046AD
:101A600005F01EFF164B174A18603146404605F038
:101A700017FF154B154A18602146154805F000FE62
:101A8000144B154A18602146144805F0F9FD144B13
:101A9000186005F0DBFDFEE7182F002000B00240C3
:101AA000482D0020CC1C0020D01C0020D0050408AC
:101AB000DC2C0020B8050408D82C0020A005040860
:101AC000D42C002088050408D02C00200C06040823
:101AD000C1120008E42C0020E805040813060008E1
:101AE000E02C0020003800400268044B9A4204D1E8
:101AF00003484FF40061FFF76FBD704700380040A6
:101B0000D01C00200268044B9A4204D103484FF4D1
:101B10000061FFF761BD704700380040D02400200D
:101B20000268034B9A4201D102F024BF704700BF04
:101B3000001000407047000082B00E4B002200925F
:101B4000596C41F480415964596C01F48041009111
:101B500000990192196C41F0805119641B6C03F0DB
:101B600080530193019B0F216FF0010002B002F03E
:101B700039BF00BF003802400268094B9A4282B068
:101B80000BD100230193074B1A6B42F480521A6366
:101B90001B6B03F480530193019B02B0704700BF9D
:101BA000003002400038024007B50F4B02689A42ED
:101BB00016D10022A3F5F0430192196B41F4000104
:101BC00019631B6B03F40003019305215A20019B49
:101BD00002F008FF5A2003B05DF804EB02F034BFB6
:101BE00003B05DF804FB00BF00B002402DE9F043F4
:101BF000044689B01422002103A81CF01AFA2268B6
:101C0000244B9A4243D1244C244800250095236B51
:101C100043F004032363236B03F004030093009B4E
:101C20000195236B43F001032363236B03F001034E
:101C30000193019B4FF012094FF400734FF001081C
:101C40000327042603A9CDE90339CDE905870796C3
:101C500003F09EF94FF480731148079603A9CDE96C
:101C60000339CDE9058703F093F90295236C43F41A
:101C700000032364236C03F400030293029B236A92
:101C800043F400032362236A23F40003236209B0B0
:101C9000BDE8F083005C00400038024000080240CC
:101CA0000000024070B5054688B01422002103A848
:101CB0001CF0BFF92A68234B9A4241D103F5003347
:101CC000002601961A6C2048204C42F480421A6487
:101CD0001A6C02F480420192019A02961A6B42F049
:101CE00002021A631B6B03F002030293029B4FF480
:101CF00030420223CDE90323069303A9052307936A
:101D000003F046F9124BC4E900364023C4E9023619
:101D10004FF480614FF400634FF40050C4E90413A2
:101D20004FF48073C4E906034FF440332046C4E9FE
:101D3000083602F0BDFE08B1FFF7FCFEAC63A563F8
:101D400008B070BD0038004000040240E82C0020BC
:101D500070600240F0B599B004461422002107A833
:101D60001CF067F930220DEB020000211CF061F934
:101D700022685E4B9A4240F0B78008230C93C02340
:101D80001093042312930CA84FF40033159304F01E
:101D900059FD08B1FFF7CEFE554B5648002400947C
:101DA0005A6C42F080625A645A6C02F0806200926F
:101DB000009A01941A6B42F020021A631A6B02F027
:101DC00020020192019A02941A6B42F001021A63F6
:101DD0001A6B02F001020292029A03941A6B42F00B
:101DE00002021A631A6B02F002020392039A04942D
:101DF0001A6B42F040021A631A6B02F0400204921E
:101E0000049A05941A6B42F004021A631A6B02F0EA
:101E100004020592059A06941A6B42F008021A63AE
:101E20001B6B03F00803069302250E26069B0B96F8
:101E30004FF4806307A9CDE90735CDE9094503F0E3
:101E4000A7F841F658032C480B9607A9CDE90735AA
:101E50000927CDE9094503F09BF8032327480B9791
:101E600007A9CDE90735CDE9094503F091F84FF40D
:101E7000706322480B9607A9CDE90735CDE90945DE
:101E800003F086F84FF40C631D480B9607A9CDE9C3
:101E90000735CDE9094503F07BF8C02319480B96B7
:101EA00007A9CDE90735CDE9094503F071F8082305
:101EB00015480B9607A9CDE90735CDE9094503F08B
:101EC00067F84FF4A0530E480B9707A9CDE90735E3
:101ED000CDE9094503F05CF858202246052102F0BF
:101EE00081FD582002F0B0FD19B0F0BD006801403E
:101EF000003802400014024000000240000402408A
:101F00000018024000080240000C024010B50446D0
:101F100088B01422002103A81CF08BF82268144B0F
:101F20009A4222D103F56843002101915A6C11486D
:101F300042F480125A645A6C02F480120192019A9F
:101F400002911A6B42F020021A631B6B03F020030C
:101F50000293029B4FF460720223CDE903230693A0
:101F600003A90523079303F013F808B010BD00BFC1
:101F700000500140001402402DE9F04186B00023DA
:101F800003932B4B1C68002C4FD14FF00108C3F872
:101F90000080284B00949A6B274842EA08029A6313
:101FA0009B6B03EA08030093022703260C25009B82
:101FB00001A94FF63F03CDE90137CDE9046502F0F1
:101FC000E7FF1E48059501A9CDE90187CDE9034644
:101FD00002F0DEFF48F233131948059501A9CDE957
:101FE0000137CDE9034602F0D3FF4FF6837315485E
:101FF000059501A9CDE90137CDE9034602F0C8FFF7
:102000004CF203731048059501A9CDE90137CDE9DC
:10201000034602F0BDFF60230C48059501A9CDE9F8
:102020000137CDE9034602F0B3FF06B0BDE8F08109
:10203000602F0020003802400014024000080240D7
:102040000018024000100240000C02400004024050
:1020500030B5014689B00022362002F0C3FC36209C
:1020600002F0F2FC0025154B02951A6C144C42F05C
:1020700010021A641B6C03F01003029301A903A859
:10208000029B04F0C1FB04F0AFFB0E4B236040F257
:10209000E733E36040000C4BB0FBF3F001386060C5
:1020A00020462561A56005F0EBF920B9204605F032
:1020B000B7F809B030BD0120FBE700BF003802408F
:1020C000642F00200010004040420F007047FEE7E0
:1020D000FEE7FEE7FEE77047014805F0DFB800BF06
:1020E000642F0020014804F061B800BF1C2E0020BE
:1020F000014802F07FBE00BF182F0020014802F007
:102100008FBD00BFE82C00200120704708B51CF0EF
:1021100033F8162303604FF0FF3008BD08B51CF0FC
:102120002BF816230360FEE770B50D4614460E46E5
:10213000731B9C4201DC204670BDAFF3008006F8A3
:10214000010BF5E770B50D4614460E46731B9C4215
:1021500001DC204670BD16F8010BAFF30080F5E7F7
:102160004FF0FF3070474FF400534B600020704732
:1021700001207047002070470A4A116808B50346DD
:1021800009B9094911601068694603448B4206D9B0
:102190001BF0F2FF0C2303604FF0FF3008BD13600B
:1021A000FCE700BFAC2F0020204F0120704710B586
:1021B000042104461BF008FD204610BD08B5032984
:1021C00013D8DFE801F002060A0E01F09BF900685F
:1021D00008BD01F097F94068FAE701F093F98068CB
:1021E000F6E701F08FF9C068F2E70020F0E70000A1
:1021F00000487047440604081120704713B50024B6
:1022000051B1036801948DF8034001AA9C680DF157
:102210000303A04702B010BD0846FBE7C089704722
:10222000008A7047C088704780887047807A00F0C5
:102230007F007047807AC009704781807047C180F5
:102240007047018170474181704770477047704700
:102250007047704710B4C4880368121B84885B6D94
:10226000091B12B25DF8044B09B21847806A704727
:1022700090F8252012B103685B69184770477047D2
:1022800010B5082104461BF09FFC204610BD704786
:10229000704700F598730868496803C37047704732
:1022A000704741607047704770470000064BC0F8A8
:1022B0004C310023C0F8503100F5A273C0F848013A
:1022C000C0F84031704700BF452400080123037265
:1022D00070477047704710B4C26841685410034695
:1022E00001EB6200D20748BF0A599B685DF8044BB6
:1022F00048BFD35818470346406830B19A681AB9A6
:10230000D86800F0010070470120704710B50C211B
:1023100004461BF059FC204610BD10B510210446A0
:102320001BF052FC204610BD10B54FF4AE710446B0
:102330001BF04AFC204610BD10B5402104461BF09E
:1023400043FC204610BD10B50AF026FF0368BDE827
:102350001040DB6B18470000054B1B7801462BB182
:10236000406818B103680C315B6E1847704700BFB6
:10237000EB420120037A70B50546BBB9406803689B
:10238000DB69984704463CB96868036805F10C01AD
:102390001B6EBDE870401847A1886B8FC91A23686F
:1023A00020461B6B09B29847A469ECE770BD10B5D5
:1023B0000446D0F8400158B10368DB68984738B14B
:1023C000D4F8400103689B6898470023C4F8403163
:1023D00010BD70B5044690F8390094F838300130DB
:1023E000C0B2984284F8390005D901232372002332
:1023F00084F8393070BDB4F93A2000210CF0E6FBC6
:10240000C30706D500284FF6FF73C8BF0123184441
:1024100000B2238AC01AA08760680368DB69984706
:1024200005462DB960680368BDE870405B691847D0
:10243000A988A38F19442B6828461B6B09B29847BB
:10244000AD69EEE72DE9F14FD0E9556A0746B0686E
:1024500003681B6A9847EF2805D8444B444AA321D8
:1024600044481BF0DFFB706803681B6A98470F281D
:1024700003D8414B3E4AA421F2E7F06803681B6A87
:1024800098470B2803D83D4B394AA521E8E70AF0C5
:1024900083FEDFF8F09004300AF0BCFED9F80000AB
:1024A00010B10368DB689847D9F8000010B10368E1
:1024B0001B689847DFF8D080D8F8000010B1036897
:1024C0005B699847D7F83C0110B103685B6898478F
:1024D000D8F8000010B103681B689847D7F83C0192
:1024E00010B103689B689847F068036800215B6A35
:1024F00098474FF0000B224BC0F804B0044680F818
:1025000008B00360B068036859465B6A984705469F
:1025100001F0A8FB7068036859465B6A9847294632
:10252000064601F07FFB331DC7F83C61C9F8004047
:10253000C8F80050CAF800302B68C6F808A0284632
:10254000DB68EE639847336830461B68984721463E
:1025500028460CF035FB236820461B699847236802
:102560005B69204601B0BDE8F04F18472CFB03081B
:10257000BAFB030892FC0308D9FC03087CFD03089E
:102580001C0804082C43012028430120044B1B682D
:1025900093F858200AB1D86C00B99868704700BF0A
:1025A000EC420120F8B5044617460E460AF000FF3B
:1025B000104B1C60104B2360104B0025C4E95135B3
:1025C0000F4BC4E953551868036801219B68C4E99F
:1025D0004F55C4E955769847284600F047FFFFF766
:1025E000D5FF13F080FFFFF7D1FF13F0F7FF204670
:1025F000F8BD00BF38430120C8070408B00704082D
:10260000EC420120064BC0F84C310023C0F8503199
:1026100000F5A273C0F84801C0F84031704700BF10
:1026200045240008064BC0F84C310023C0F8503157
:1026300000F5A273C0F84801C0F84031704700BFF0
:1026400015280008064BC0F84C310023C0F8503163
:1026500000F5A273C0F84801C0F84031704700BFD0
:10266000D92600082DE9F04105460026164B4660A4
:10267000067245F80C3B044628460F4608F0B4FBAA
:10268000124B84F838701B7884F83960A68723B918
:10269000012323722046BDE8F0810D4B0D4FB3F9A5
:1026A0000080E368B7F900109B6B266128469847C5
:1026B000E3684146DB6B28469847284608F00FFB45
:1026C0003B885B426387E5E740080408EB42012052
:1026D000E2420120E04201202DE9F047D0E9556AAD
:1026E0000746B06803681B6A984740F687239842FC
:1026F00005D8414B414AA32141481BF093FA706829
:1027000003681B6A98470F2803D83E4B3B4AA42115
:10271000F2E7F06803681B6A98473F2803D83A4BF2
:10272000364AA521E8E70AF037FDDFF8E0900430EB
:102730000AF070FDD9F8000010B10368DB68984713
:10274000D9F8000010B103681B689847DFF8C08013
:10275000D8F8000010B103685B699847D7F83C01CE
:1027600010B103685B689847D8F8000010B103689F
:102770001B689847D7F83C0110B103689B689847DD
:10278000F068036800215B6A984714210446FFF74C
:1027900069FFB068036800215B6A9847054600F04E
:1027A00035FF7068036800215B6A98472946064632
:1027B00000F0EAFE331DC7F83C61C9F80040C8F8D4
:1027C0000050CAF800302B68C6F808A02846DB681D
:1027D000EE639847336830461B6898472146284681
:1027E0000CF0EEF9236820461B69984723682046C1
:1027F0005B69BDE8F04718472CFB03081FFE030880
:1028000092FC0308D9FC03087CFD03082C4301203B
:10281000284301202DE9F047D0E9556A0746B06802
:1028200003681B6A9847EF2805D8414B414AA3210A
:1028300041481BF0F7F9706803681B6A98470F2836
:1028400003D83E4B3B4AA421F2E7F06803681B6AB9
:1028500098473F2803D83A4B364AA521E8E70AF0C3
:102860009BFCDFF8E09004300AF0D4FCD9F80000BB
:1028700010B10368DB689847D9F8000010B103680D
:102880001B689847DFF8C080D8F8000010B10368D3
:102890005B699847D7F83C0110B103685B689847BB
:1028A000D8F8000010B103681B689847D7F83C01BE
:1028B00010B103689B689847F068036800215B6A61
:1028C000984714210446FFF7CDFEB0680368002145
:1028D0005B6A9847054601F0C5F9706803680021F6
:1028E0005B6A98472946064601F09CF9331DC7F8F4
:1028F0003C61C9F80040C8F80050CAF800302B68A5
:10290000C6F808A02846DB68EE639847336830466F
:102910001B689847214628460CF052F92368204648
:102920001B699847236820465B69BDE8F047184754
:102930002CFB03080AFF030892FC0308D9FC0308D8
:102940007CFD03082C430120284301200020704710
:102950004FF6FF7383814FF0FF3303621368C36147
:10296000106070477047704770477047704730B5C8
:10297000036885B06D460181D3F884300146044672
:102980002846984795E807003C3484E8070005B0DE
:1029900030BD30B5036885B06D464181D3F88430D1
:1029A000014604462846984795E807003C3484E8E9
:1029B000070005B030BD0022028042808280C280C4
:1029C000704780F83610704770B5036804461B6B7B
:1029D000154698472368294620465B6EBDE870403F
:1029E000184700207047806C7047704770477047E9
:1029F000704730B4C26844685510034604EB620067
:102A0000D20748BF62599B6830BC48BFD3581847AB
:102A10000346406830B19A681AB9D86800F00100DE
:102A200070470120704710B54C2104461BF0CCF8CC
:102A3000204610BD10B5102104461BF0C5F82046F5
:102A400010BD10B54FF40F7104461BF0BDF82046C1
:102A500010BD08B5FFF70CFC08BD90F825201AB191
:102A600090F8242002B1186070470000036870B528
:102A70005E6B124B1B6804468DB22BB9104B114A8A
:102A80006C2111481BF0CEF81049828D09889142C3
:102A900003D80F4B0B4A6D21F3E713F812200D4BAF
:102AA0001B6853F8220003681B6B9847291A3346AA
:102AB000204609B2BDE87040184700BF3C430120E2
:102AC000F5FF0308370004087200040840430120A2
:102AD000B90004084443012000F5E270884208B5BB
:102AE00005D10AF059FBBDE80840FFF79BBD08BDC2
:102AF00000224FF0FF31C0E900218260704770B5BD
:102B0000036804461B6B15469847236829462046F0
:102B10005B6BBDE87040184770B504461D46BDF9B3
:102B20001060FFF7ECFF2368294620469B6B98470F
:102B3000236831462046DB6BBDE870401847000033
:102B40000022C0E90122C0E90322C0E90522C0E950
:102B500007224FF480728284014A0260704700BFEE
:102B60006408040838B5262204460D4600211BF0EF
:102B700060FA2046FFF7E4FF064B23602B88E384CE
:102B8000FF23204684F82830294608F0D0FC204650
:102B900038BD00BFA414040810B526220446002145
:102BA0001BF047FA2046FFF7CBFF0A4BA3624FF614
:102BB000FF73A3854FF47F020023C4E90C32064A59
:102BC000226023874FF0FF32C4E91023E363A3643C
:102BD000204610BDA0070408CC080408F8B5194B1E
:102BE000018F1B888B4206462AD9174B1B682BB9CD
:102BF000164B174A17486C211BF014F813F81120D4
:102C0000154B1B6853F82250144B186800F06AFCEF
:102C10002B6807469B6B284698472B6804469B6C9D
:102C20003946284698472B6814FB00F45B6A3946FE
:102C300028469847A4B223181BB2A6F84630F8BD20
:102C40000023FAE7404301203C430120F5FF03083D
:102C5000370004087200040844430120484301205F
:102C60002DE9F04F044691B0A04600250BF0FCFD85
:102C7000A24BE56348F8403B2622294640461BF01C
:102C8000D8F94046FFF75CFF9D4B2364FF2384F88F
:102C9000663004F16C034FF6FF760EA91846A56660
:102CA0000693ADF83860FFF75DFF04F1980304F177
:102CB000C40918460EA90793ADF83860FFF752FF14
:102CC0000EA94846ADF83860FFF74CFF04F1F00359
:102CD00018460393FFF760FF04F59E730EA918468C
:102CE0000493ADF83860FFF73DFF864BC4F83C31E4
:102CF000012704F5BC734FF0FF3B1846C4E95BB7EE
:102D0000C4F8685184F8745104F5E27A0593FFF72A
:102D100043FF504608F042FD7B4BC4E98B347B4BAC
:102D2000C4E98D354FF4A0732A46404600932946E6
:102D3000F023FFF7F1FE261D4FF07F43A3664146C7
:102D4000304606F04DFE3A4606988621FFF7D7FE3C
:102D50004FF00C080698ADF838800EA908F0E7FB94
:102D60000699304606F03CFE3A460798CC21FFF71C
:102D7000C6FE0798ADF838800EA908F0D8FB079971
:102D8000304606F02DFE3A464846A921FFF7B7FE29
:102D900048460EA9ADF8388008F0C9FB49463046D0
:102DA00006F01EFE1D2304220398009308216023D1
:102DB000FFF7B2FED4F8F0300399D3F88430C4F8AA
:102DC00020B10DF120084046A4F82451984798E816
:102DD000070004F5967383E807004D4B1B6804F564
:102DE00003792BB94B4B4C4A60214C481AF01AFF1F
:102DF0004B4B1B88022B03D84A4B474A6121F4E70F
:102E0000494B0221186800F06DFB484A0346052132
:102E100048460DF0C7F903230398C4F838910EA96A
:102E2000DFF80C91ADF83C30CDF8389008F0F0F9AF
:102E30000399304606F0D4FD04983A46D021FFF7B6
:102E40005EFE09220498082108F0BCF8049839466F
:102E500008F0CBF8049984F86451304606F0C0FDC0
:102E600022230598009372222946F023FFF754FE8F
:102E7000D4F878310599D3F88430C4F8A8B1404625
:102E8000A4F8AC51984798E8070004F5DA7383E892
:102E9000070004F21623C4F8C0310598A4F81652AE
:102EA0000EA9CDF83890ADF83C7008F0B1F905994D
:102EB000304606F095FD5046A0222621FFF71FFE62
:102EC00002230EAA0DA95046ADF83830ADF8347083
:102ED00008F0FBF95046A4F8FC51FFF77FFE04F51B
:102EE0000B733046C4E980BBC4F8EC31514606F0A0
:102EF00077FD204611B0BDE8F08F00BF74090408CB
:102F00003C140408C01304085C090408D92A00080A
:102F10003C430120F5FF0308F70004087200040891
:102F200040430120B900040848430120420104083D
:102F3000A0070408406A7047806A704770478B8812
:102F4000C0690A68DB0A50F823001044704710B5C6
:102F50000446BAB1107B68B1537BD27A1B0203F4EA
:102F6000E0631A43236A03EB82031A888A4202D180
:102F700093F9020010BD05D8013880B2043300284F
:102F8000F3D1F7E70020F5E710B52C2104461AF03D
:102F90001BFE204610BD000030B58BB00446BDF8C6
:102FA00060500895BDF85C5007959DF85050069507
:102FB0009DF84C5005959DF8485004959DF8445057
:102FC00003959DF8405002959DF83C500195BDF841
:102FD000385000950BF04EFA064B2360159BE361C9
:102FE000169B2362199B63621A9BA36220460BB057
:102FF00030BD00BFA809040870477047704730B45F
:10300000C26844685510034604EB6200D20748BF0B
:1030100062599B6830BC48BFD35818470346406884
:1030200030B19A681AB9D86800F0010070470120E1
:10303000704710B5102104461AF0C6FD204610BD99
:1030400010B5F02104461AF0BFFD204610BD98309F
:10305000884208B505D10AF09FF8BDE80840FFF79F
:10306000F1BA08BD2DE9F34104460BF0FDFB444BDA
:103070002360444B0025C4E910354FF48072FF23D0
:1030800004F16C07A4F8642084F86630A4F890205A
:103090004FF6FF733C4AE26604F19806A4F89230BA
:1030A00084F8943001A9C4E91255C4E91455C4E95F
:1030B0001655C4E91C55C4E91E55C4E92055C4E998
:1030C0002255E5632566A5663846ADF8043008F05C
:1030D0002EFA304608F062FB2C4BC4E938342C4BF6
:1030E00004F14008C4E93A352A4629464046FFF72C
:1030F00006FD4046F021FFF7A4F840464FF4A071CA
:10310000FFF7A1F8251D4FF07F43A36641462846EF
:1031100006F066FC1B2238461421FFF7F0FC102352
:1031200001A93846ADF8043008F001FA39462846BE
:1031300006F056FC3046A0222321FFF7E0FC0123D5
:1031400001AA6946ADF8003030460223ADF80430DC
:1031500008F0BBF80423A4F8D0303046FFF73EFD5A
:103160004FF0FF33C4E9353304F1E0032846C4F8D7
:10317000C030314606F034FC204602B0BDE8F08194
:10318000200A04083C140408A4140408080A0408CB
:103190004F3000087047000030B5174D2C6814F010
:1031A00001048FB0BFF35B8F22D128461AF00EFDC9
:1031B000F0B1124B124913480A94CDE90B433F2357
:1031C0000993114B0893114B0594CDE90643012255
:1031D0000423CDE90332182300931722CDE90144DB
:1031E000FFF7DAFE0A481AF03BFD28461AF0FAFC0F
:1031F00004480FB030BD00BFB02F00204C0A0408B7
:1032000080230408B42F0020F42404085025040867
:10321000953100087047000030B5164D2C6814F049
:1032200001048FB0BFF35B8F21D128461AF0CEFC8A
:10323000E8B1114B114912480A94CDE90B433F23E1
:103240000993104B0893104B05940122CDE90643D6
:103250000423CDE9033214230093CDE90144FFF7A1
:103260009BFE0A481AF0FCFC28461AF0BBFC0448F6
:103270000FB030BDE02F0020680C0408C4240408FF
:10328000E42F0020442504085425040815320008C2
:103290007047000030B5164D2C6814F001048FB053
:1032A000BFF35B8F20D128461AF090FCE0B13F239A
:1032B0000993104B0893104B104911480A940122AE
:1032C000CDE906430423CDE903320A230093CDE977
:1032D0000B44CDE901440594FFF75EFE09481AF05E
:1032E000BFFC28461AF07EFC05480FB030BD00BF79
:1032F000103000204825040858250408D424040868
:1033000014300020913200087047000030B5164D8F
:103310002C6814F001048FB0BFF35B8F20D12846D6
:103320001AF054FCE0B13F230993104B0893104B63
:10333000104911480A940122CDE906430423CDE93E
:10334000033228230093CDE90B44CDE901440594D1
:10335000FFF722FE09481AF083FC28461AF042FCC7
:1033600005480FB030BD00BF403000204C25040898
:103370005C250408E42404084430002009330008D4
:1033800000207047002070470EB403B503AB002146
:1033900053F8042B01930AF095FE02B05DF804EB9C
:1033A00003B070470CB407B504AB53F8042B01937A
:1033B0000AF088FE03B05DF804EB02B0704700002D
:1033C000436C10B5044673B3038F2BB9184B194ADD
:1033D000C52119481AF026FCC38E00EB43035B8C11
:1033E0000BB30CF036F9238F012B03D8134B144A7F
:1033F000CB21EEE7E28E531C9BB2092B194688BF06
:10340000A3F10A0104EB410140F63F10498C8142CF
:1034100009D10A2B04EB420228BF002304EB43032B
:10342000508C588451842046BDE810400CF014B8EC
:10343000450104084E010408F90104084302040888
:10344000510204080BF0CFBF10B586B002AC84E87F
:1034500006001A460AAB05930193099B0093214687
:10346000089B09F037FA06B010BD000038B518BB4C
:10347000124B13481C681349B4B1226822440260FD
:10348000626822440A60A26814440F4B00221A802A
:1034900000F038F8054600F033F80C4B1C600C4B7C
:1034A0001D600C4B188007E00B4B03600B4B0B604F
:1034B0000B4B1C68002CE8D138BD00BF7C300020CD
:1034C0007430002070300020783000203C43012010
:1034D000444301204043012074250408602504086A
:1034E000A8250408044B1B6853F82100034B1B68F4
:1034F00003EB4000704700BF7030002074300020A4
:1035000005207047004870478030002010B5FFF755
:1035100083FE064C2060FFF7F9FE6060FFF7BAFEFD
:10352000A060FFF739FEE06010BD00BF80300020D2
:10353000704710B54FF4AE7104461AF045FB2046B3
:1035400010BD10B50446D0F8580100F09AFB204693
:10355000BDE8104009F0BCBE10B50446FFF722F8E4
:10356000014B2360204610BDC81004087047043882
:103570007047704710B5102104461AF025FB20460D
:1035800010BDA0F10400F5E700228260024A02604B
:1035900018324260C16070471C1104087047000077
:1035A000134B70B50446036040F65C2540F6A40654
:1035B000B54217D140F2EC66635960191B682C3D87
:1035C0009847B542F8D140F2DC65635960191B6831
:1035D0003C3D9847B5F50B7FF7D12046FFF707FA3A
:1035E000204670BD635960191B6898472C3DDFE782
:1035F0004411040810B50446FFF7D2FF204640F6F8
:1036000088211AF0E1FA204610BD00002DE9F04FA4
:1036100005468DB0FFF724FB05F50F79654B2B6050
:103620004FF6FF7869464846ADF80080FFF79AFAF2
:1036300005F51A77DFF884B105F5E36A3C46002604
:1036400020466946ADF80080FFF78CFA0123C4F8E4
:1036500000B0E662A4F83080A4F8328084F83430F8
:1036600084F8356084F8366084F8376084F8386010
:103670003C345445E4D105F50D6A26464FF6FF78F3
:10368000304669462C36ADF80080FFF76BFA564598
:10369000F6D1564605F688284FF6FF7B3046694638
:1036A0002C36ADF800B0FFF75DFA4645F6D1424E34
:1036B000684600F0DDFBBDF80430B380BDF91C3076
:1036C000039AB383089BF2603362049A099B3261C8
:1036D0007362059A0A9B726105F10408069AB36247
:1036E0006846BDF82C30B261B38500F0D3FB40468C
:1036F00005F5E27106F0B5F9404605F5BC7106F036
:10370000B0F90E2369464846ADF8003007F00FFFC8
:10371000B6F90E20B6F90C104846FFF7F0F940460E
:10372000494606F05DF94FF0040804F5DC762122E5
:10373000304640F24111FFF7E2F9D4F8B831304693
:103740001B6EADF80080694698472046212240F262
:103750004111FFF7D4F9236800261B6EADF8006015
:10376000204669462C3498475445DED1344603261A
:10377000B4FBF6F303EB4303E31A012B13D0022B44
:1037800014D007220621384607F01CFC01343846C5
:10379000142107F02AFC142C07F13C07E8D1284635
:1037A0000DB0BDE8F08F09220821ECE70B220A21B9
:1037B000E9E700BF4411040854350020C013040891
:1037C000C34B1B782DE9F74FC24E04466BB3C24F73
:1037D0003D7855BBC14B00F5E27900F1040A4FF08A
:1037E00001084946504683F8008006F0F9F8B3888E
:1037F000BB4A0A2104F2162004F5BC740CF0D2FC7A
:103800002146504606F0ECF848460AF085FD204671
:10381000B44C0AF081FD206887F8008010B103F0F5
:1038200073FF256003B0BDE8F08FAF4FDFF8D4829F
:1038300038684FF000098DF8039004F0CDF804F5D6
:103840000F75E0B14FF0FF3338684A460DF10301C0
:1038500004F092F89DF80330522B40F0FA80B6F94C
:103860002810A24800F096FB0F23284601A9ADF8C6
:10387000043007F05CFED8F8000004F0AFF8D8F888
:10388000000004F0A9F8E8B14FF0FF33D8F80000C9
:1038900000220DF1030104F06FF89DF803304C2B6A
:1038A00040F0E680B16A9148494209B200F072FBEB
:1038B0000D23284601A9ADF8043007F038FE38681A
:1038C00004F08CF88A4FDFF84082386804F084F8FE
:1038D000A8B14FF0FF33386800220DF1030104F066
:1038E0004BF89DF80330552B40F0D1807F48B6F956
:1038F000281000F051FBD8F8000004F06FF8D8F859
:10390000000004F069F8B0B14FF0FF33D8F80000C0
:1039100000220DF1030104F02FF89DF80330442B31
:1039200040F0BD80B16A7148494209B200F034FBF1
:10393000386804F053F82846B6F90E20B6F90C1092
:103940006C4FFEF787FC04F5E365A04604F50D6AAD
:1039500004F10409B7F91030022B00F0A880042B01
:1039600000F0D480012B07D12B68B7F906209B6D9E
:10397000B7F90410284698472C35554507F11C0720
:10398000E8D15D4F04F6882A04F10409B7F9103034
:10399000022B00F0C180042B00F0CF80012B07D157
:1039A0002B68B7F906209B6DB7F904102846984795
:1039B0002C35554507F11C07E8D1504D04F51A7711
:1039C00004F5966A04F10409B5F91030022B00F0F1
:1039D000BA80042B00F0D280012B08D1D8F86832CD
:1039E000B5F906209B6DB5F904103846984708F1E3
:1039F0003C08D04505F1200507F13C07E4D1404AD9
:103A0000B6F92C3011788B4204F1040516D0DBB2E4
:103A10001370502284F8C02084F8EC2084F894209D
:103A2000002B00F0B680FF22012B84F8C02005D0C7
:103A3000022B84F8EC2018BF84F89420B388284A1D
:103A4000052104F503700CF0ADFB28460AF064FC78
:103A5000E8E64E2B7FF413AF4946244800F09AFA6B
:103A60000E2301A92846ADF8043007F060FD06E7F3
:103A70004E2B7FF427AF1D48002100F08BFA0E2358
:103A800001A92846ADF8043007F051FD1AE74E2B86
:103A90007FF435AF1548002100F07EFA2FE74E2B5A
:103AA0007FF449AF1148002100F076FA43E72B6814
:103AB000B7F906209B6DB7F90410284698472946A8
:103AC000484605F08DFF0121384600F0A7F953E77D
:103AD0009A3000205435002090300020993000208A
:103AE0002303040894300020DC2C00205C350020E7
:103AF000D42C00203C34002024330020A4300020AB
:103B000014000020D82C0020D02C00202946484644
:103B100005F0A7FF0321D7E72B68B7F906209B6DB7
:103B2000B7F90410284698472946484605F058FF3B
:103B30000121384600F072F93AE72946484605F077
:103B400090FF0321F5E7D8F86832B5F906209B6DA0
:103B5000B5F9041038469847D8F86832D3F864B0FD
:103B600001231A4600213846D8473946484605F011
:103B700037FF0121284600F051F938E7D8F86832BC
:103B800038469B6E98473946484605F06AFF032140
:103B9000F0E7034B012228461A700AF0BDFB4DE7FF
:103BA0009930002010B5124C8AB0FEF721FF206832
:103BB00018B103F0A9FD002323602022002102A8F0
:103BC0001AF037FA0B4B01934FF480421823CDE9DA
:103BD0000623002101AA084803F052FD074A20608D
:103BE00000231370064A1370064A13700AB010BD02
:103BF00094300020260304082D4100089A3000204C
:103C0000993000209030002070470438704770478A
:103C100010B51021044619F0D7FF204610BDA0F1C1
:103C20000400F5E700228260024A02601832426016
:103C3000C1607047781104087047000010B5034B4D
:103C400003600446FFF7D9F9204610BDA01104080F
:103C500010B50446FFF7F2FF2046F02119F0B4FF3B
:103C6000204610BD10B50446FFF7FCF9014B236058
:103C7000204610BDA0110408FFF7C0B90022026061
:103C80007047704710B5034B0360044600F0B1F86D
:103C9000204610BDD411040810B50446FFF7F2FF0A
:103CA00020461C2119F090FF204610BD10B5044697
:103CB00000F0AAF8064B23604FF4C873A3614FF0DD
:103CC00018110023C4E90213024B2361204610BDE2
:103CD000D411040803009001B0F9083010B5B0F910
:103CE00004405B429C420BDBF02C09DCB0F90A304B
:103CF000B0F906205B429A4202DBB2F5A07F05DDF7
:103D00000423038283694382002010BD438A591A29
:103D100009B200294182F7DC83891C44C38984806D
:103D20001A448369C28043820120EEE710B5034B39
:103D30000360044600F05DF8204610BDE811040859
:103D400010B50446FFF7F2FF2046202119F03CFF92
:103D5000204610BD10B5044600F056F8084B23600D
:103D60004FF4167246F2A813C4E906234FF020114F
:103D70000022C4E90212034A2261A382204610BD38
:103D8000E811040803005802B0F90830B0F9042023
:103D90005B429A4210B508DBF02A06DCB0F90A3023
:103DA000B0F906405B429C4207DA04230382C369F0
:103DB000838283694382002010BD438A591A09B265
:103DC00000294182F7DC83891A44C38982801C441C
:103DD0008369C48043820120EEE7838A591A09B2BD
:103DE0000029D8BFC3698182DABF83820120002005
:103DF000704770470020704710B51821044619F02D
:103E0000E3FE204610BD0000034A02600322028246
:103E10004FF0201282607047FC1104080182704745
:103E20008180C28070478181C2817047B0F90420CF
:103E3000B0F9083010B5B1F904401344A34215DDC0
:103E4000B1F9083023449A4210DAB0F90630B0F9DB
:103E50000A20B1F906401A44A24207DDB1F90A204E
:103E600022449342ACBF0020012010BD0020FCE79B
:103E700010B5054B0360002304468380083000F032
:103E800033F8204610BD00BF10120408838819447F
:103E90008180704710B5044B044640F8083B00F0A1
:103EA0000FF8204610BD00BF1012040810B50446DC
:103EB000FFF7F0FF2046302119F086FE204610BDA6
:103EC00010B5034B03600446FFF793FF204610BD77
:103ED0002012040810B50446FFF7F2FF20462821FF
:103EE00019F072FE204610BD10B50446FFF78CFF96
:103EF00003210A480A4B2162A1844FF01C11C4E936
:103F0000010142F21072236000214FF4C873C4E92A
:103F10000632E160A2826382204610BD680004017F
:103F200020120408438A591A09B2002941821FDC71
:103F300082888389C1891A44C38812B20B441BB298
:103F400081698280002AC380418207DA0022828050
:103F5000002B07DA0023C38001207047D02AF7DD49
:103F6000D022F4E7B3F5907FF6DD4FF49073F2E7DB
:103F700000207047838A591A09B20029D8BFC36943
:103F80008182DABF8382012000207047838C19442C
:103F90008184704781817047C18170472DE9F04766
:103FA000234E244C3368244F1B1A054633604FF0D0
:103FB000000A4FF6FF78B4F91030032B0CD02946D5
:103FC0002046FFF7E1FE0AF1010ABAF1140F04F1ED
:103FD0002004F0D1BDE8F0873368002BF3DC3B68A8
:103FE00003F00102002A0CBFC1464FF001094FF651
:103FF000E07108BFF021012B14D0002B15DC013338
:104000002A2220463B60FFF70BFF0022494620464C
:10401000FFF709FF02212046FFF700FF43F6982330
:104020003360D0E750220023EBE72A22FBE700BFF2
:1040300018000020A4300020A03000202DE9F84313
:10404000014606461348144CDFF85080DFF85090C4
:10405000FFF790FF04F58C770546B4F91030032B79
:1040600008D031462046FFF737FE1C34BC42F4D15D
:10407000BDE8F88365B1B8F80020B9F80010103A2F
:10408000204692B2FFF7CCFE02212046FFF7C6FE83
:104090000025EAE75C3500203C3400209C300020FD
:1040A0009E3000202DE9F0411E4C054600274FF0C0
:1040B0001C08B4F91030012B10D129462046FFF717
:1040C0008CFE58B1184A00231646B2F91010032985
:1040D00019D001330A2B02F11C02F6D10137142F3B
:1040E00004F12004E5D1104C0A26B4F91030012B5C
:1040F00003D129462046FFF7EFFD013E04F11C04E1
:10410000F3D1BDE8F081E288A18808FB0366103294
:10411000304692B2FFF784FE02213046FFF77EFE62
:10412000DCE700BFA4300020243300202DE9F74F46
:104130000024734BDFF8E4B1E6184FF6CE72114657
:104140003046FFF76DFE04EB0B054FF6CE721146BD
:104150002846FFF765FE4FF6FB7200213046FFF759
:1041600062FE032200212846FFF75DFE0321304650
:10417000FFF754FE1C3403212846FFF74FFEB4F529
:104180008C7FD6D1DFF8989100254C464FF6CE7241
:1041900011462046FFF744FE013520460321FFF774
:1041A0003DFE142D04F12004F0D1DFF878810027C2
:1041B000544B1B7801373BB1534B1878002840F023
:1041C0009C8003F0B9FAF3E7012F504CD4BF184696
:1041D0001F464F4BA2891A804E4BE2891A80C8BFF6
:1041E000012088F80000FFF7D9FE98F8001004F1CC
:1041F0000800FFF797FE98F80000FFF71FFF98F8F8
:104200000000FFF74FFF4D46002604F1080AB5F9FC
:104210001030012B60D151462846FFF707FE0028D9
:104220005AD03D484FF0FF31FFF7B0FE0421284639
:10423000FFF7F4FD38484FF482726821FFF7F0FD74
:104240004D464FF0000AB5F91020012A19D12C4E25
:104250000A22B6F91010012944D1314628460192AC
:10426000FFF7E4FD019A00283CD004212846FFF71F
:10427000D5FD04213046FFF7D1FD24480521FFF785
:1042800005FE0AF1010ABAF1140F05F12005DAD191
:1042900021495D460026B5F91030012B27D128466B
:1042A000FFF7C4FD1C4910B31B484FF0FF31FFF767
:1042B0006DFE04212846FFF7B1FD17484FF48272C6
:1042C0006821FFF7ADFDB4F92C30002B3FF770AF3C
:1042D0000C4A012313706BE70136142E05F12005FB
:1042E00095D1ADE7013A06F11C06B2D1C9E7013616
:1042F0000A2E05F11C05CED1E5E703B0BDE8F08F2D
:104300003C3400209A3000209930002054350020A1
:104310009E3000209C3000205C350020243300209B
:10432000A43000209830002038B50F480F4DFFF71B
:104330009FFD002428191C34FFF7B8FCB4F58C7FCE
:10434000F8D10B4D002428191C34FFF7AFFCB4F54D
:104350008C7FF8D1074D002428192034FFF7FAFC90
:10436000B4F5207FF8D138BD543500203C3400200E
:1043700024330020A4300020164838B51524013C11
:10438000A0F1200512D114480B24013CA0F11C051A
:1043900014D112480B24013CA0F11C0515D0D0F813
:1043A000FC30FC305B6898472846F4E7D5F880324B
:1043B00000F518705B6898472846E0E7D5F8183193
:1043C000FC305B6898472846DFE7BDE83840044882
:1043D000FFF760BDA4300020243300203C340020CF
:1043E00054350020F02070474FF4A070704729200A
:1043F000FDF7A2B82820FDF79FB808B5FDF770F8C3
:10440000CA20FDF799F8C320FDF77AF80820FDF7D8
:1044100077F85020FDF774F8CF20FDF78DF80020D5
:10442000FDF76EF8C120FDF76BF83020FDF768F856
:10443000ED20FDF781F86420FDF762F80320FDF719
:104440005FF81220FDF75CF88120FDF759F8E820AD
:10445000FDF772F88520FDF753F80020FDF750F8BE
:104460007820FDF74DF8CB20FDF766F83920FDF7F1
:1044700047F82C20FDF744F80020FDF741F83420E0
:10448000FDF73EF80220FDF73BF8F720FDF754F862
:104490002020FDF735F8EA20FDF74EF80020FDF763
:1044A0002FF80020FDF72CF8B120FDF745F800208B
:1044B000FDF726F81B20FDF723F8B620FDF73CF8A2
:1044C0000A20FDF71DF8A220FDF71AF8C020FDF71D
:1044D00033F81020FDF714F8C120FDF72DF8102057
:1044E000FDF70EF8C520FDF727F84520FDF708F881
:1044F0001520FDF705F8C720FDF71EF89020FCF702
:10450000FFFF3620FDF718F8C820FCF7F9FFF2206E
:10451000FDF712F80020FCF7F3FFB020FDF70CF8D0
:10452000C220FCF7EDFFB620FDF706F80A20FCF7E5
:10453000E7FFA720FCF7E4FF2720FCF7E1FF0420BA
:10454000FCF7DEFF2A20FCF7F7FF0020FCF7D8FF7E
:104550000020FCF7D5FF0020FCF7D2FFEF20FCF78E
:10456000CFFF2B20FCF7E8FF0020FCF7C9FF00205D
:10457000FCF7C6FF0120FCF7C3FF3F20FCF7C0FF9C
:10458000F620FCF7D9FF0120FCF7BAFF0020FCF76A
:10459000B7FF0620FCF7B4FF2C20FCF7CDFFC820A6
:1045A000FDF718F82620FCF7C7FF0120FCF7A8FF4D
:1045B000E020FCF7C1FF0F20FCF7A2FF2920FCF749
:1045C0009FFF2420FCF79CFF0C20FCF799FF0E2096
:1045D000FCF796FF0920FCF793FF4E20FCF790FFB5
:1045E0007820FCF78DFF3C20FCF78AFF0920FCF7C0
:1045F00087FF1320FCF784FF0520FCF781FF1720BD
:10460000FCF77EFF1120FCF77BFF0020FCF778FF12
:10461000E120FCF791FF0020FCF772FF1620FCF769
:104620006FFF1B20FCF76CFF0420FCF769FF1120D3
:10463000FCF766FF0720FCF763FF3120FCF760FF03
:104640003320FCF75DFF4220FCF75AFF0520FCF702
:1046500057FF0C20FCF754FF0A20FCF751FF2820DD
:10466000FCF74EFF2F20FCF74BFF0F20FCF748FF15
:104670001120FCF761FFC820FCF7ACFF2920FCF7F4
:104680005BFFBDE808402C20FCF756BF08B5FCF7DF
:1046900027FF0321D320FCF76BFF80B208BD10B5C4
:1046A000C4B2022203212046FCF7D0FE0A20FCF708
:1046B00015FF204600220321FCF7C8FEBDE810408C
:1046C0000220FCF70BBF38B50446E4B2FCF7BCFE91
:1046D00000212046FCF7D2FE012105462046FCF7CA
:1046E000CDFE40EA052080B238BD10B5C4B24021ED
:1046F0002046FCF7C3FE030607D54C212046FCF7F5
:10470000BDFE003818BF012010BD01224B212046FC
:10471000FCF79CFE204600224B21FCF797FE002070
:10472000F2E773B50423C4B20E461546D7210DEB4C
:1047300003022046FCF7BCFE019B1BBA1A0DC3F313
:104740000B23328020462B8001224B21FCF77EFE7A
:1047500000224B212046FCF779FE02B070BD00001C
:1047600010B50A4A1378984204460DD05178884211
:104770000AD00BB141B90123D454FCF765FE2046A1
:10478000BDE81040FFF78BBF10BD00BF843500208F
:1047900010B5C4B209212046FCF770FE40F00102BA
:1047A000D2B220460921BDE81040FCF74FBE10B53B
:1047B000C4B209212046FCF761FE092100F0FE0287
:1047C0002046BDE81040FCF741BE38B5C4B20D46E6
:1047D00020460A21FCF752FE40EA0502D2B22046EA
:1047E0000A21BDE83840FCF731BE10B50446FCF79D
:1047F0002CFE20461F21FFF7E8FF2046BDE81040B1
:10480000FFF7C6BF38B5C4B20D4620460A21FCF7F3
:1048100035FE20EA0502D2B220460A21BDE8384022
:10482000FCF714BE10B50446FFF7C1FF20461F2158
:10483000BDE81040FFF7E6BF10B5C0B20C460B2133
:10484000FCF71CFE204010BD1F21FFF7F5BF0A46F4
:10485000C0B20B21FCF7FABD1F21FFF7F8BF38B536
:10486000C4B20D4620461721FCF708FE20EA0502D7
:10487000D2B220461721BDE83840FCF7E7BD70B53D
:10488000C4B2064604212046FCF7F8FD042100F0DE
:10489000FB0205462046FCF7D9FD3046F021FFF724
:1048A000DEFF05F0F80220460421FCF7CFFD492287
:1048B00020212046FCF7CAFD0220FCF70FFE20460F
:1048C00001222121FCF7C2FD20469A224121FCF75A
:1048D000BDFD204601224A21FCF7B8FD20460122F9
:1048E0004B21FCF7B3FD204600224B21FCF7AEFD27
:1048F000204601225621FCF7A9FD2046012258211D
:10490000FCF7A4FD204601224021FCF79FFD204634
:10491000FF220B21FCF79AFDBDE870400220FCF756
:10492000DDBD0000054BD3F8882042F47002C3F8C7
:1049300088204FF000629A60704700BF00ED00E0F1
:1049400008B50B4B1A6842F400721A601A6842F4F8
:1049500080621A601A6842F480721A60032000F0C4
:104960002FF80020FDF774FBFDF7E6F8002008BDE6
:10497000003C0240034A044B11681B780B4413604F
:10498000704700BF8835002080000020014B186868
:10499000704700BF8835002038B50446FFF7F6FFA2
:1049A000631C1CBF054B1B78054618BFE418FFF7B6
:1049B000EDFF431BA342FAD338BD00BF80000020A7
:1049C0000749CA6822F4E0620302120403F4E063B8
:1049D000120C134343F0BF6343F40033CB607047C2
:1049E00000ED00E0164B30B5DC68C4F30224C4F1DE
:1049F0000703251D042B28BF0423062D4FF0FF3588
:104A00008CBF033C002405FA03F321EA0303A5400D
:104A100022EA0502A340002843EA0203ACBF00F1EA
:104A20006040084A4FEA0313B8BF00F00F00DBB242
:104A3000AABF00F56140135480F8003330BD00BFB9
:104A400000ED00E014ED00E0002807DB4109044A16
:104A500000F01F000123834042F82130704700BF5F
:104A600000E100E010B5044650B1437903F0FF02C5
:104A700013B90271FDF780F801236371002010BDA6
:104A80000120FCE7036810B5084C0246D9B2103982
:104A90001820B1FBF0F0205CD06523F47F7020F08B
:104AA00003005F2988BF0430906510BD44120408DC
:104AB00070B50446FFF76AFF0546002C60D002235C
:104AC00084F835302268002384F83430136823F0EA
:104AD0000103136022681368D8072ED41368324884
:104AE000A1691840D4E901352B43E5682B432569BA
:104AF0002B4365692B43E5690B432B43256A2B4305
:104B00000343606A042802BFD4E90B5635432B43A4
:104B100013605369042823F0070343EA000335D1E7
:104B2000A06AE56A03438DB391B9012820D030F023
:104B300002012BD1E90129D51DE0FFF727FF401B1A
:104B40000528C7D920230320636584F8350070BD8C
:104B5000B1F5005F16D1032818D801A151F820F053
:104B6000774B0008354B0008774B0008714B000865
:104B7000B5F1C07F0AD140236365012384F8353045
:104B80000120E4E70228F6D90328D3D05361204658
:104B9000FFF778FFE26D3F239340836000200123FD
:104BA000606584F83530D2E73F8010F070B590F83A
:104BB0003440866D012C30D0012480F8344090F8C8
:104BC0003540012C4FF0000425D1022580F83550E6
:104BD00044650468256825F4802525606360836842
:104BE000402B0EBFA260A160E260C26D08BFE16011
:104BF0003F239340B360236843F016032360036CA4
:104C00001BB1236843F008032360236843F00103CA
:104C10002360002070BD80F834400220FAE70000D5
:104C2000F7B5002301935C4B856D1F68C36D2E683B
:104C300008229A40324204460CD0016808684007B6
:104C400008D5086820F004000860AA60626D42F090
:104C50000102626501229A40324208D02168496906
:104C6000090641BFAA60626D42F002026265042239
:104C70009A40324208D021680968880741BFAA607B
:104C8000626D42F00402626510229A40324210D0F6
:104C90002368196809070CD5AA601A68500337D52C
:104CA0001B68190301D4236C00E0A36C0BB12046F0
:104CB0009847E16D20228A4032423AD02368186832
:104CC000C60636D5AA6094F83520052A1A6827D179
:104CD00022F016021A605A6922F080025A61226C90
:104CE0000AB9A26C1AB11A6822F008021A603F23AE
:104CF0008B40AB60012384F83530002384F83430D6
:104D0000236D002B45D0204603B0BDE8F040184786
:104D10001A68D2055EBF1A6822F008021A60C2E75C
:104D2000500327D51B68190331D4636C0BB120469F
:104D30009847636D6BB3636DDA0719D522684FF43A
:104D40001653B7FBF3F7052384F83530136823F0C7
:104D500001031360019B0133BB42019302D8136826
:104D6000DB07F7D4012384F83530002384F834308E
:104D7000E36CC6E71A6812F4807208D1196821F052
:104D800010011960012384F8353084F83420E36B76
:104D9000CCE703B0F0BD00BF7C00002010B5044696
:104DA00020B390F8393003F0FF021BB980F83820A7
:104DB000FCF7FAFE022384F83930236861681A6828
:104DC00022F440320A431A605A6BA16822F00702AB
:104DD0000A435A631A6CE1686FF30D020A431A64BE
:104DE00000200123E06384F8393010BD0120FCE786
:104DF00070477047036870B55E681D68F207044627
:104E000014D5E90512D51A6822F480721A60C26BB3
:104E100042F00102C26301229A60042380F8393013
:104E2000002380F83830436903B19847B20616D59D
:104E3000AB0414D523681A6822F400521A602022A9
:104E40009A60E36B43F00203E363042384F8393090
:104E5000002384F8383063690BB120469847300747
:104E600016D5290514D523681A6822F400621A6041
:104E700008229A60E36B43F00403E363042384F89D
:104E80003930002384F8383063690BB120469847E5
:104E900072070BD56B0509D523681A6822F4806266
:104EA0001A6004229A602046FFF7A2FFB00714D5CB
:104EB000A90512D523681A6822F400721A6002222A
:104EC0009A60E36BE363012384F83930002384F8AC
:104ED000383023690BB120469847F20613D5EB040E
:104EE00011D523681A6822F480521A6010229A6041
:104EF000E36BE363012384F83930002384F838300E
:104F00002046FFF776FF70BDF0B590F83820012AF3
:104F100003464FF002002BD0012283F8382083F89B
:104F2000390003EB0112D2E90740556A174F44EAF2
:104F30000040093C012C9CBF05F07F4210434FEA22
:104F400001161A6888BF40EA056091B9516A394074
:104F500001435162012C9969916103D8596A21F08A
:104F60007F4191620122002083F8392083F83800C4
:104F7000F0BDD16939400143D1619919012C89698A
:104F800011619CBF25F07F451562EBE7F0FFFC0047
:104F90002DE9F74FDFF8BC916C4A00230D6801241E
:104FA0009C4004EA0506AC4340F0B7804D680327F7
:104FB00005F003044FEA430807FA08FC671E012FB7
:104FC0006FEA0C0C34D8876807EA0C0ECF6807FA32
:104FD00008F747EA0E078760476827EA060EC5F319
:104FE00000179F4047EA0E074760C76807EA0C0EA4
:104FF0008F6807FA08F747EA0E07022CC76019D135
:105000004FEAD30A00EB8A0A03F0070BDAF82070A4
:105010004FEA8B0B4FF00F0E0EFA0BFE27EA0E0E27
:105020000F6907FA0BF747EA0E07CAF8207001E08C
:10503000032CDAD1076804FA08F407EA0C073C43AA
:1050400015F4403F046068D000240194D9F844402E
:1050500044F48044C9F84440D9F8444023F003079D
:1050600007F1804704F4804407F59C37019403F06E
:10507000030C019CD7F808E04FEA8C0C0F2404FACB
:105080000CF42EEA040E324CA0424DD004F580649C
:10509000A0424BD004F58064A04249D004F580645E
:1050A000A04247D004F58064A04245D004F5806456
:1050B000A04243D004F58064A04241D004F580644E
:1050C000A0423FD004F58064A0423DD004F5806446
:1050D000A04214BF0A24092404FA0CF444EA0E0482
:1050E000BC609468F74315F4801F0CBF3C40344308
:1050F0009460D46815F4001F0CBF3C403443D46066
:10510000546815F4003F0CBF3C40344354601468AD
:10511000ED0354BF3C40344314600133102B7FF443
:105120003DAF03B0BDE8F08F0024D5E70124D3E7FD
:105130000224D1E70324CFE70424CDE70524CBE7FD
:105140000624C9E70724C7E70824C5E7003C014057
:1051500000000240003802400369194214BF0120D8
:10516000002070470AB1816170470904FBE7436979
:1051700001EA030221EA030141EA02418161704729
:1051800001684B6913F480634FF0000210D06FF494
:1051900080634B612023026380F83D3080F83E201D
:1051A000036C80F83C2043F0040303640120704743
:1051B000184670472DE9F84606460F4691461D46AB
:1051C0004FEA114A3368BAF1010F0CBF5C699C6960
:1051D00027EA0404A4B2B4FA84F46409A14501D016
:1051E000002017E06A1CEED0FFF7D0FB089BC01A26
:1051F000A84201D8002DE5D100232022336386F890
:105200003D2086F83E30326C86F83C3042F0200279
:1052100032640120BDE8F8862DE9F04104460F46CE
:10522000164698462568686927EA000080B2C0B132
:105230006B695A0517D52B6843F400732B606FF424
:1052400080636B6120220023236384F83D2084F86F
:105250003E30236C43F004032364002384F83C3085
:105260000120BDE8F081731CDDD0FFF78FFBA0EBC0
:105270000800B04209D900232022236384F83D208E
:1052800084F83E30236C1343E6E7002ECAD1F2E7E0
:1052900070B504460D46164623685B691B0601D5AA
:1052A000002018E02046FFF76BFF98B96A1CF3D086
:1052B000FFF76CFB801BA8420ED90023202223633A
:1052C00084F83D2084F83E30226C84F83C3042F073
:1052D00020022264012070BD002DDDD1EDE7000029
:1052E0002DE9F0431546026885B0DDE90C78994652
:1052F000136843F4807313600E463B46CDF800807C
:1053000000224FF001110446FFF754FF236838B123
:105310001B68DB0502D54FF400732364032620E0ED
:1053200006F0FE061E611A4943463A462046FFF73C
:1053300073FFA8B9236803905A6903929B6903938A
:10534000424639462046039BFFF7A2FF064660B15E
:10535000236C042B01BF2268136843F400731360AD
:105360000126304605B0BDE8F083B9F1010F23688E
:1053700002D1EDB21D61F4E72A0A1A6139464246AC
:105380002046FFF785FF0028E2D12368F1E700BF40
:10539000020001002DE9FF479A46036815461A6886
:1053A00042F480621A601A68DDE90C7842F4807277
:1053B0001A600E463B46CDF8008000224FF00111E6
:1053C0000446FFF7F7FE236838B11B68DB0544BFCE
:1053D0004FF400732364032021E05FFA86F906F09E
:1053E000FE061E612B4943463A462046FFF714FF4E
:1053F000A0B9236803905A6903929B6903934246BC
:1054000039462046039BFFF743FF58B1236C042B1A
:1054100001BF2268136843F400731360012004B0D5
:10542000BDE8F087BAF1010F23681AD1EDB2424608
:105430001D6139462046FFF72BFF02460028E5D1C3
:1054400021680B6843F480730B602046CDF8008020
:105450003B464FF00111FFF7ADFE226860B11368C3
:10546000B4E72A0A1A61394642462046FFF710FF80
:105470000028CBD12368D9E749F00103136105491E
:1054800043463A462046FFF7C7FE003818BF0120C2
:10549000C5E700BF0200010070B504460D46164680
:1054A00023685B695B0701D5002018E02046FFF701
:1054B00067FE98B96A1CF3D0FFF768FA801BA84210
:1054C0000ED900232022236384F83D2084F83E3047
:1054D000226C84F83C3042F020022264012070BD2E
:1054E000002DDDD1EDE770B504460D461646216866
:1054F0004B6913F0400301D0002011E04A69D20645
:105500000FD56FF010024A612022236384F83D20FA
:1055100084F83E30236C2364002384F83C3001205F
:1055200070BDFFF733FA801BA84209D9002320225F
:10553000236384F83D2084F83E30236C1343EAE76C
:10554000002DD4D1F2E7000070B5044608B901205F
:1055500070BD90F83D3003F0FF021BB980F83C208D
:10556000FCF744FB242384F83D3023681A6822F0BA
:1055700001021A601A6842F400421A601A6822F4A2
:1055800000421A6001F030F93F4B65689D4294BFBC
:105590003E4B3F4B98428CBF00230123002BD6D1BA
:1055A0002268394E51683B4BB0FBF3F321F03F01C9
:1055B0001943B542516088BF4FF49676116A88BF8F
:1055C000734321F03F0184BF4FF47A76B3FBF6F3C7
:1055D00001330B431362D169431E2B4821F44F4121
:1055E000854221F0FF0132D86D0040F6FC70B3FB1C
:1055F000F5F30133034242D0C3F30B031943D161E6
:10560000D4E907301168034321F0C0010B43136054
:105610009168D4E9030321F40341034321F0FF011E
:105620000B439360D4E90530D168034321F0FF01B7
:105630000B43D360136843F0010313600020202361
:10564000206484F83D30206384F83E0080E7A06841
:1056500050B905EB4505B3FBF5F30133C3F30B0379
:105660007BB143F40043C9E719206843B3FBF0F36F
:105670000133C3F30B0323B143F44043BEE70423D8
:10568000BCE70123BAE700BFA08601007F841E00AB
:10569000FF083D0040420F002DE9F74304469946BC
:1056A0000C9E0F469046FFF771F994F83D30202B81
:1056B000054603D0022003B0BDE8F08300903C49CA
:1056C000192301222046FFF775FD0028F2D194F836
:1056D0003C30012BEED02068012384F83C30036875
:1056E000D9075EBF036843F001030360036823F436
:1056F00000630360212384F83D30402384F83E306A
:10570000002323640A9B6362BDF82C306385638D9C
:105710002385284BE3624246CDE900654B46394676
:105720002046FFF7DDFD00282AD00120C3E7FFF760
:10573000AFFD40B1236C042B01BF2268136843F412
:1057400000731360F1E7636A27681A4612F8011BB9
:1057500039616262628D218D013A92B262857A6905
:10576000481E80B2520720850AD548B15A783A615E
:1057700002336362638D013B02399BB221856385ED
:10578000238D2A4631462046002BD0D1FFF784FED8
:105790000028CFD12268136843F4007313602023DC
:1057A00084F83D3084F83C0084F83E0083E700BF75
:1057B000020010000000FFFF2DE9F043044687B00F
:1057C0009946109F0D469046FFF7E0F894F83D305B
:1057D000202B064604D00225284607B0BDE8F083FA
:1057E00000907649192301222046FFF7E3FC0028A8
:1057F000F1D194F83C30012BEDD02068012384F8DE
:105800003C300368DB075EBF036843F001030360BD
:10581000036823F400630360222384F83D304023AF
:1058200084F83E30002323640E9B6362BDF83C3055
:105830006385638D2385624BE3622946CDE900765B
:105840004B4642462046FFF7A5FD054608B1012517
:10585000C2E7228D2368B2B902905A6902929A690E
:105860000292029A1A6842F400721A60DFF85481B8
:10587000238D002B2CD1202284F83D2084F83C304D
:1058800084F83E30A8E7012A0AD11A6822F480621F
:105890001A6003905A6903929A690392039AE1E7A6
:1058A000022A0ED11A6822F480621A601A6842F441
:1058B00000621A6004905A6904929B690493049BE5
:1058C000D4E705905A6905929B690593059BCDE73E
:1058D000032B56D8012B15D1324639462046FFF707
:1058E00002FE0028B3D123681A69636A1A70636ADA
:1058F00001336362238D013B2385638D013B9BB2A2
:105900006385B5E7022B00963B464FF00002414607
:10591000204619D1FFF74EFC002898D123681A6859
:1059200042F400721A601A69636A1A70626A531C40
:105930006362238D013B2385638D013B9BB26385AD
:1059400023681B695370D2E7FFF734FC0246002836
:105950007FF47DAF2368196821F4806119601969AB
:10596000636A1970636A01336362238D013B238587
:10597000638D013B9BB26385414600963B462046C2
:10598000C8E7324639462046FFF7ADFD00287FF4D0
:105990005EAF23681A69636A1A70626A531C636295
:1059A000238D013B2385638D013B9BB26385236877
:1059B000596949077FF55CAFC3E700BF02001000DB
:1059C0000000FFFF0400010010B590F83D30202BCF
:1059D000DCB216D1242380F83D3003681A6822F027
:1059E00001021A605A6A22F010025A625A6A11437E
:1059F00059621A6842F001021A6080F83D400020A6
:105A000010BD0220FCE730B590F83D30202BDCB211
:105A100016D10268242380F83D30136823F0010377
:105A20001360556A4FF6F0732B400B439BB25362E1
:105A3000136843F00103136080F83D40002030BD3F
:105A40000220FCE7F8B50446002800F08C8090F8AE
:105A5000413003F0FF022BB9454B80F840204363EF
:105A6000FCF720F92268022184F84110D36923F45D
:105A70007B6323F00F03D361636911628B42E26899
:105A800073D0A368002A14BF202510250120202BE5
:105A900098BF6D0001F002F823696269B3F5007FD9
:105AA00059D1E3680A21002B53D0AD00B0FBF5F3C8
:105AB0004B43B3FBF2F30A220533B3FBF2F303F0DB
:105AC00001025B08991EFD2949D81202134322697D
:105AD0002068DFF8ACC0E668A56913430362D4E927
